{
  "contractName": "TheMoon",
  "abi": [
    {
      "constant": true,
      "inputs": [
        {
          "name": "",
          "type": "uint256"
        }
      ],
      "name": "landowners",
      "outputs": [
        {
          "name": "",
          "type": "address"
        }
      ],
      "payable": false,
      "stateMutability": "view",
      "type": "function"
    },
    {
      "constant": true,
      "inputs": [],
      "name": "weiUnitPrice",
      "outputs": [
        {
          "name": "",
          "type": "uint256"
        }
      ],
      "payable": false,
      "stateMutability": "view",
      "type": "function"
    },
    {
      "constant": true,
      "inputs": [],
      "name": "getLandowners",
      "outputs": [
        {
          "name": "",
          "type": "address[4]"
        }
      ],
      "payable": false,
      "stateMutability": "view",
      "type": "function"
    },
    {
      "constant": true,
      "inputs": [],
      "name": "NUMUNITS",
      "outputs": [
        {
          "name": "",
          "type": "uint256"
        }
      ],
      "payable": false,
      "stateMutability": "view",
      "type": "function"
    },
    {
      "constant": false,
      "inputs": [
        {
          "name": "unitId",
          "type": "uint256"
        }
      ],
      "name": "buy",
      "outputs": [
        {
          "name": "",
          "type": "uint256"
        }
      ],
      "payable": true,
      "stateMutability": "payable",
      "type": "function"
    },
    {
      "anonymous": false,
      "inputs": [
        {
          "indexed": false,
          "name": "idx",
          "type": "uint256"
        },
        {
          "indexed": false,
          "name": "owner",
          "type": "address"
        }
      ],
      "name": "Buy",
      "type": "event"
    }
  ],
  "bytecode": "0x6060604052341561000f57600080fd5b61041f8061001e6000396000f30060606040526004361061006d576000357c0100000000000000000000000000000000000000000000000000000000900463ffffffff1680631e9b74ce14610072578063206f0d6d146100d55780634c97e84a146100fe57806387bc341a1461014f578063d96a094a14610178575b600080fd5b341561007d57600080fd5b61009360048080359060200190919050506101a4565b604051808273ffffffffffffffffffffffffffffffffffffffff1673ffffffffffffffffffffffffffffffffffffffff16815260200191505060405180910390f35b34156100e057600080fd5b6100e86101d9565b6040518082815260200191505060405180910390f35b341561010957600080fd5b6101116101e4565b6040518082600460200280838360005b8381101561013c578082015181840152602081019050610121565b5050505090500191505060405180910390f35b341561015a57600080fd5b610162610265565b6040518082815260200191505060405180910390f35b61018e600480803590602001909190505061026a565b6040518082815260200191505060405180910390f35b6000816004811015156101b357fe5b016000915054906101000a900473ffffffffffffffffffffffffffffffffffffffff1681565b662386f26fc1000081565b6101ec6103b5565b600060048060200260405190810160405280929190826004801561025b576020028201915b8160009054906101000a900473ffffffffffffffffffffffffffffffffffffffff1673ffffffffffffffffffffffffffffffffffffffff1681526020019060010190808311610211575b5050505050905090565b600481565b6000662386f26fc10000341015151561028257600080fd5b60008210158015610297575060016004038211155b80156102e85750600080836004811015156102ae57fe5b0160009054906101000a900473ffffffffffffffffffffffffffffffffffffffff1673ffffffffffffffffffffffffffffffffffffffff16145b15156102f357600080fd5b3360008360048110151561030357fe5b0160006101000a81548173ffffffffffffffffffffffffffffffffffffffff021916908373ffffffffffffffffffffffffffffffffffffffff1602179055507f7534e9c9396820aad756ba27f82162930f80bef863aabdf311e7dce26a79bccd8233604051808381526020018273ffffffffffffffffffffffffffffffffffffffff1673ffffffffffffffffffffffffffffffffffffffff1681526020019250505060405180910390a1819050919050565b6080604051908101604052806004905b600073ffffffffffffffffffffffffffffffffffffffff168152602001906001900390816103c557905050905600a165627a7a723058202c133760c94242da809bbf73bd78b524974010c384be394284108f5f70e36e530029",
  "source": "pragma solidity ^0.4.17;\n\ncontract TheMoon {\n\n    uint public constant weiUnitPrice = 10000000000000000; //0.01 ether\n    uint public constant NUMUNITS = 4; //HAVE TO CHANGE BELOW ALSO!\n    // address[] public landowners = new address[](NUMUNITS); //complicated\n    address[4] public landowners;\n\n    /// Buy is emitted when a unit is reserved.\n    event Buy(\n      uint idx,\n      address owner\n    );\n\n    // Buy an untouched unit of the moon\n    function buy(uint unitId) public payable returns (uint) {\n      \n      require(msg.value >= weiUnitPrice);\n      require(unitId >= 0 && unitId <= NUMUNITS-1 && landowners[unitId] == 0x000 );\n\n      landowners[unitId] = msg.sender;\n\n      Buy(unitId, msg.sender);\n\n      return unitId; //Return values don't actually work for functions that modify the blockchain!\n    }\n\n    // Retrieving the landowners\n    function getLandowners() public view returns (address[4]) {\n      return landowners;\n    }\n\n\n\n}",
  "sourcePath": "/Users/einarbui/Code/moon-contract/contracts/TheMoon.sol",
  "compiler": {
    "name": "solc",
    "version": "0.4.18+commit.9cf6e910.Emscripten.clang"
  },
  "schemaVersion": "1.0.1",
  "updatedAt": "2017-12-21T16:58:10.414Z"
}